{
  "contractName": "ERC20Token",
  "abi": [
    {
      "inputs": [
        {
          "internalType": "string",
          "name": "_name",
          "type": "string"
        },
        {
          "internalType": "string",
          "name": "_symbol",
          "type": "string"
        },
        {
          "internalType": "uint8",
          "name": "_decimals",
          "type": "uint8"
        },
        {
          "internalType": "uint256",
          "name": "_initialSupply",
          "type": "uint256"
        }
      ],
      "stateMutability": "nonpayable",
      "type": "constructor"
    },
    {
      "anonymous": false,
      "inputs": [
        {
          "indexed": true,
          "internalType": "address",
          "name": "tokenOwner",
          "type": "address"
        },
        {
          "indexed": true,
          "internalType": "address",
          "name": "spender",
          "type": "address"
        },
        {
          "indexed": false,
          "internalType": "uint256",
          "name": "tokens",
          "type": "uint256"
        }
      ],
      "name": "Approval",
      "type": "event"
    },
    {
      "anonymous": false,
      "inputs": [
        {
          "indexed": true,
          "internalType": "address",
          "name": "from",
          "type": "address"
        },
        {
          "indexed": true,
          "internalType": "address",
          "name": "to",
          "type": "address"
        },
        {
          "indexed": false,
          "internalType": "uint256",
          "name": "tokens",
          "type": "uint256"
        }
      ],
      "name": "Transfer",
      "type": "event"
    },
    {
      "inputs": [],
      "name": "_totalSupply",
      "outputs": [
        {
          "internalType": "uint256",
          "name": "",
          "type": "uint256"
        }
      ],
      "stateMutability": "view",
      "type": "function",
      "constant": true
    },
    {
      "inputs": [
        {
          "internalType": "address",
          "name": "",
          "type": "address"
        },
        {
          "internalType": "address",
          "name": "",
          "type": "address"
        }
      ],
      "name": "allowed",
      "outputs": [
        {
          "internalType": "uint256",
          "name": "",
          "type": "uint256"
        }
      ],
      "stateMutability": "view",
      "type": "function",
      "constant": true
    },
    {
      "inputs": [
        {
          "internalType": "address",
          "name": "",
          "type": "address"
        }
      ],
      "name": "balances",
      "outputs": [
        {
          "internalType": "uint256",
          "name": "",
          "type": "uint256"
        }
      ],
      "stateMutability": "view",
      "type": "function",
      "constant": true
    },
    {
      "inputs": [],
      "name": "decimals",
      "outputs": [
        {
          "internalType": "uint8",
          "name": "",
          "type": "uint8"
        }
      ],
      "stateMutability": "view",
      "type": "function",
      "constant": true
    },
    {
      "inputs": [],
      "name": "name",
      "outputs": [
        {
          "internalType": "string",
          "name": "",
          "type": "string"
        }
      ],
      "stateMutability": "view",
      "type": "function",
      "constant": true
    },
    {
      "inputs": [],
      "name": "symbol",
      "outputs": [
        {
          "internalType": "string",
          "name": "",
          "type": "string"
        }
      ],
      "stateMutability": "view",
      "type": "function",
      "constant": true
    },
    {
      "inputs": [
        {
          "internalType": "address",
          "name": "to",
          "type": "address"
        },
        {
          "internalType": "uint256",
          "name": "value",
          "type": "uint256"
        }
      ],
      "name": "transfer",
      "outputs": [
        {
          "internalType": "bool",
          "name": "",
          "type": "bool"
        }
      ],
      "stateMutability": "nonpayable",
      "type": "function"
    },
    {
      "inputs": [
        {
          "internalType": "address",
          "name": "from",
          "type": "address"
        },
        {
          "internalType": "address",
          "name": "to",
          "type": "address"
        },
        {
          "internalType": "uint256",
          "name": "value",
          "type": "uint256"
        }
      ],
      "name": "transferFrom",
      "outputs": [
        {
          "internalType": "bool",
          "name": "",
          "type": "bool"
        }
      ],
      "stateMutability": "nonpayable",
      "type": "function"
    },
    {
      "inputs": [
        {
          "internalType": "address",
          "name": "spender",
          "type": "address"
        },
        {
          "internalType": "uint256",
          "name": "value",
          "type": "uint256"
        }
      ],
      "name": "approve",
      "outputs": [
        {
          "internalType": "bool",
          "name": "",
          "type": "bool"
        }
      ],
      "stateMutability": "nonpayable",
      "type": "function"
    },
    {
      "inputs": [
        {
          "internalType": "address",
          "name": "owner",
          "type": "address"
        },
        {
          "internalType": "address",
          "name": "spender",
          "type": "address"
        }
      ],
      "name": "allowance",
      "outputs": [
        {
          "internalType": "uint256",
          "name": "",
          "type": "uint256"
        }
      ],
      "stateMutability": "view",
      "type": "function",
      "constant": true
    },
    {
      "inputs": [
        {
          "internalType": "address",
          "name": "owner",
          "type": "address"
        }
      ],
      "name": "balanceOf",
      "outputs": [
        {
          "internalType": "uint256",
          "name": "",
          "type": "uint256"
        }
      ],
      "stateMutability": "view",
      "type": "function",
      "constant": true
    },
    {
      "inputs": [],
      "name": "totalSupply",
      "outputs": [
        {
          "internalType": "uint256",
          "name": "",
          "type": "uint256"
        }
      ],
      "stateMutability": "view",
      "type": "function",
      "constant": true
    }
  ],
  "bytecode": "0x60806040523480156200001157600080fd5b506040516200143e3803806200143e83398181016040528101906200003791906200022b565b83600090805190602001906200004f929190620000db565b50826001908051906020019062000068929190620000db565b5081600260006101000a81548160ff021916908360ff16021790555080600381905550600354600460003373ffffffffffffffffffffffffffffffffffffffff1673ffffffffffffffffffffffffffffffffffffffff168152602001908152602001600020819055505050505062000484565b828054620000e99062000375565b90600052602060002090601f0160209004810192826200010d576000855562000159565b82601f106200012857805160ff191683800117855562000159565b8280016001018555821562000159579182015b82811115620001585782518255916020019190600101906200013b565b5b5090506200016891906200016c565b5090565b5b80821115620001875760008160009055506001016200016d565b5090565b6000620001a26200019c84620002f2565b620002c9565b905082815260208101848484011115620001bb57600080fd5b620001c88482856200033f565b509392505050565b600082601f830112620001e257600080fd5b8151620001f48482602086016200018b565b91505092915050565b6000815190506200020e8162000450565b92915050565b60008151905062000225816200046a565b92915050565b600080600080608085870312156200024257600080fd5b600085015167ffffffffffffffff8111156200025d57600080fd5b6200026b87828801620001d0565b945050602085015167ffffffffffffffff8111156200028957600080fd5b6200029787828801620001d0565b9350506040620002aa8782880162000214565b9250506060620002bd87828801620001fd565b91505092959194509250565b6000620002d5620002e8565b9050620002e38282620003ab565b919050565b6000604051905090565b600067ffffffffffffffff82111562000310576200030f62000410565b5b6200031b826200043f565b9050602081019050919050565b6000819050919050565b600060ff82169050919050565b60005b838110156200035f57808201518184015260208101905062000342565b838111156200036f576000848401525b50505050565b600060028204905060018216806200038e57607f821691505b60208210811415620003a557620003a4620003e1565b5b50919050565b620003b6826200043f565b810181811067ffffffffffffffff82111715620003d857620003d762000410565b5b80604052505050565b7f4e487b7100000000000000000000000000000000000000000000000000000000600052602260045260246000fd5b7f4e487b7100000000000000000000000000000000000000000000000000000000600052604160045260246000fd5b6000601f19601f8301169050919050565b6200045b8162000328565b81146200046757600080fd5b50565b620004758162000332565b81146200048157600080fd5b50565b610faa80620004946000396000f3fe608060405234801561001057600080fd5b50600436106100b45760003560e01c80633eaaf86b116100715780633eaaf86b146101a35780635c658165146101c157806370a08231146101f157806395d89b4114610221578063a9059cbb1461023f578063dd62ed3e1461026f576100b4565b806306fdde03146100b9578063095ea7b3146100d757806318160ddd1461010757806323b872dd1461012557806327e235e314610155578063313ce56714610185575b600080fd5b6100c161029f565b6040516100ce9190610c8d565b60405180910390f35b6100f160048036038101906100ec9190610b8a565b61032d565b6040516100fe9190610c72565b60405180910390f35b61010f610458565b60405161011c9190610cef565b60405180910390f35b61013f600480360381019061013a9190610b3b565b610462565b60405161014c9190610c72565b60405180910390f35b61016f600480360381019061016a9190610ad6565b610759565b60405161017c9190610cef565b60405180910390f35b61018d610771565b60405161019a9190610d0a565b60405180910390f35b6101ab610784565b6040516101b89190610cef565b60405180910390f35b6101db60048036038101906101d69190610aff565b61078a565b6040516101e89190610cef565b60405180910390f35b61020b60048036038101906102069190610ad6565b6107af565b6040516102189190610cef565b60405180910390f35b6102296107f8565b6040516102369190610c8d565b60405180910390f35b61025960048036038101906102549190610b8a565b610886565b6040516102669190610c72565b60405180910390f35b61028960048036038101906102849190610aff565b610a25565b6040516102969190610cef565b60405180910390f35b600080546102ac90610e53565b80601f01602080910402602001604051908101604052809291908181526020018280546102d890610e53565b80156103255780601f106102fa57610100808354040283529160200191610325565b820191906000526020600020905b81548152906001019060200180831161030857829003601f168201915b505050505081565b60003373ffffffffffffffffffffffffffffffffffffffff168373ffffffffffffffffffffffffffffffffffffffff16141561036857600080fd5b81600560003373ffffffffffffffffffffffffffffffffffffffff1673ffffffffffffffffffffffffffffffffffffffff16815260200190815260200160002060008573ffffffffffffffffffffffffffffffffffffffff1673ffffffffffffffffffffffffffffffffffffffff168152602001908152602001600020819055508273ffffffffffffffffffffffffffffffffffffffff163373ffffffffffffffffffffffffffffffffffffffff167f8c5be1e5ebec7d5bd14f71427d1e84f3dd0314c0f7b2291e5b200ac8c7c3b925846040516104469190610cef565b60405180910390a36001905092915050565b6000600354905090565b600080600560008673ffffffffffffffffffffffffffffffffffffffff1673ffffffffffffffffffffffffffffffffffffffff16815260200190815260200160002060003373ffffffffffffffffffffffffffffffffffffffff1673ffffffffffffffffffffffffffffffffffffffff16815260200190815260200160002054905082811015610527576040517f08c379a000000000000000000000000000000000000000000000000000000000815260040161051e90610caf565b60405180910390fd5b82600460008773ffffffffffffffffffffffffffffffffffffffff1673ffffffffffffffffffffffffffffffffffffffff1681526020019081526020016000205410156105a9576040517f08c379a00000000000000000000000000000000000000000000000000000000081526004016105a090610ccf565b60405180910390fd5b82600560008773ffffffffffffffffffffffffffffffffffffffff1673ffffffffffffffffffffffffffffffffffffffff16815260200190815260200160002060003373ffffffffffffffffffffffffffffffffffffffff1673ffffffffffffffffffffffffffffffffffffffff16815260200190815260200160002060008282546106359190610d97565b9250508190555082600460008773ffffffffffffffffffffffffffffffffffffffff1673ffffffffffffffffffffffffffffffffffffffff168152602001908152602001600020600082825461068b9190610d97565b9250508190555082600460008673ffffffffffffffffffffffffffffffffffffffff1673ffffffffffffffffffffffffffffffffffffffff16815260200190815260200160002060008282546106e19190610d41565b925050819055508373ffffffffffffffffffffffffffffffffffffffff168573ffffffffffffffffffffffffffffffffffffffff167fddf252ad1be2c89b69c2b068fc378daa952ba7f163c4a11628f55a4df523b3ef856040516107459190610cef565b60405180910390a360019150509392505050565b60046020528060005260406000206000915090505481565b600260009054906101000a900460ff1681565b60035481565b6005602052816000526040600020602052806000526040600020600091509150505481565b6000600460008373ffffffffffffffffffffffffffffffffffffffff1673ffffffffffffffffffffffffffffffffffffffff168152602001908152602001600020549050919050565b6001805461080590610e53565b80601f016020809104026020016040519081016040528092919081815260200182805461083190610e53565b801561087e5780601f106108535761010080835404028352916020019161087e565b820191906000526020600020905b81548152906001019060200180831161086157829003601f168201915b505050505081565b600081600460003373ffffffffffffffffffffffffffffffffffffffff1673ffffffffffffffffffffffffffffffffffffffff16815260200190815260200160002054101561090a576040517f08c379a000000000000000000000000000000000000000000000000000000000815260040161090190610ccf565b60405180910390fd5b81600460003373ffffffffffffffffffffffffffffffffffffffff1673ffffffffffffffffffffffffffffffffffffffff16815260200190815260200160002060008282546109599190610d97565b9250508190555081600460008573ffffffffffffffffffffffffffffffffffffffff1673ffffffffffffffffffffffffffffffffffffffff16815260200190815260200160002060008282546109af9190610d41565b925050819055508273ffffffffffffffffffffffffffffffffffffffff163373ffffffffffffffffffffffffffffffffffffffff167fddf252ad1be2c89b69c2b068fc378daa952ba7f163c4a11628f55a4df523b3ef84604051610a139190610cef565b60405180910390a36001905092915050565b6000600560008473ffffffffffffffffffffffffffffffffffffffff1673ffffffffffffffffffffffffffffffffffffffff16815260200190815260200160002060008373ffffffffffffffffffffffffffffffffffffffff1673ffffffffffffffffffffffffffffffffffffffff16815260200190815260200160002054905092915050565b600081359050610abb81610f46565b92915050565b600081359050610ad081610f5d565b92915050565b600060208284031215610ae857600080fd5b6000610af684828501610aac565b91505092915050565b60008060408385031215610b1257600080fd5b6000610b2085828601610aac565b9250506020610b3185828601610aac565b9150509250929050565b600080600060608486031215610b5057600080fd5b6000610b5e86828701610aac565b9350506020610b6f86828701610aac565b9250506040610b8086828701610ac1565b9150509250925092565b60008060408385031215610b9d57600080fd5b6000610bab85828601610aac565b9250506020610bbc85828601610ac1565b9150509250929050565b610bcf81610ddd565b82525050565b6000610be082610d25565b610bea8185610d30565b9350610bfa818560208601610e20565b610c0381610ee3565b840191505092915050565b6000610c1b601183610d30565b9150610c2682610ef4565b602082019050919050565b6000610c3e601583610d30565b9150610c4982610f1d565b602082019050919050565b610c5d81610e09565b82525050565b610c6c81610e13565b82525050565b6000602082019050610c876000830184610bc6565b92915050565b60006020820190508181036000830152610ca78184610bd5565b905092915050565b60006020820190508181036000830152610cc881610c0e565b9050919050565b60006020820190508181036000830152610ce881610c31565b9050919050565b6000602082019050610d046000830184610c54565b92915050565b6000602082019050610d1f6000830184610c63565b92915050565b600081519050919050565b600082825260208201905092915050565b6000610d4c82610e09565b9150610d5783610e09565b9250827fffffffffffffffffffffffffffffffffffffffffffffffffffffffffffffffff03821115610d8c57610d8b610e85565b5b828201905092915050565b6000610da282610e09565b9150610dad83610e09565b925082821015610dc057610dbf610e85565b5b828203905092915050565b6000610dd682610de9565b9050919050565b60008115159050919050565b600073ffffffffffffffffffffffffffffffffffffffff82169050919050565b6000819050919050565b600060ff82169050919050565b60005b83811015610e3e578082015181840152602081019050610e23565b83811115610e4d576000848401525b50505050565b60006002820490506001821680610e6b57607f821691505b60208210811415610e7f57610e7e610eb4565b5b50919050565b7f4e487b7100000000000000000000000000000000000000000000000000000000600052601160045260246000fd5b7f4e487b7100000000000000000000000000000000000000000000000000000000600052602260045260246000fd5b6000601f19601f8301169050919050565b7f616c6c6f77616e636520746f6f206c6f77000000000000000000000000000000600082015250565b7f746f6b656e2062616c616e636520746f6f206c6f770000000000000000000000600082015250565b610f4f81610dcb565b8114610f5a57600080fd5b50565b610f6681610e09565b8114610f7157600080fd5b5056fea26469706673582212204953c7d6d9548e6210a077ed9cfc99e7fb9329c3ab6c344f75e8da726a755c2c64736f6c63430008030033",
  "immutableReferences": {},
  "source": "pragma solidity ^0.8.3;\n\ninterface ERC20Interface {\n    function transfer(address to, uint256 tokens)\n        external\n        returns (bool success);\n\n    function transferFrom(\n        address from,\n        address to,\n        uint256 tokens\n    ) external returns (bool success);\n\n    function balanceOf(address tokenOwner)\n        external\n        view\n        returns (uint256 balance);\n\n    function approve(address spender, uint256 tokens)\n        external\n        returns (bool success);\n\n    function allowance(address tokenOwner, address spender)\n        external\n        view\n        returns (uint256 remaining);\n\n    function totalSupply() external view returns (uint256);\n\n    event Transfer(address indexed from, address indexed to, uint256 tokens);\n    event Approval(\n        address indexed tokenOwner,\n        address indexed spender,\n        uint256 tokens\n    );\n}\n\ncontract ERC20Token is ERC20Interface {\n    string public name;\n\n    string public symbol;\n\n    uint8 public decimals;\n\n    uint256 public _totalSupply;\n\n    mapping(address => uint256) public balances;\n\n    mapping(address => mapping(address => uint256)) public allowed;\n\n    constructor(\n        string memory _name,\n        string memory _symbol,\n        uint8 _decimals,\n        uint256 _initialSupply\n    ) {\n        name = _name;\n        symbol = _symbol;\n        decimals = _decimals;\n        _totalSupply = _initialSupply;\n        balances[msg.sender] = _totalSupply;\n    }\n\n    function transfer(address to, uint256 value)\n        public\n        override\n        returns (bool)\n    {\n        require(balances[msg.sender] >= value, \"token balance too low\");\n        balances[msg.sender] -= value;\n        balances[to] += value;\n        emit Transfer(msg.sender, to, value);\n        return true;\n    }\n\n    function transferFrom(\n        address from,\n        address to,\n        uint256 value\n    ) public override returns (bool) {\n        uint256 _allowance = allowed[from][msg.sender];\n        require(_allowance >= value, \"allowance too low\");\n        require(balances[from] >= value, \"token balance too low\");\n        allowed[from][msg.sender] -= value;\n        balances[from] -= value;\n        balances[to] += value;\n        emit Transfer(from, to, value);\n        return true;\n    }\n\n    function approve(address spender, uint256 value)\n        public\n        override\n        returns (bool)\n    {\n        require(spender != msg.sender);\n        allowed[msg.sender][spender] = value;\n        emit Approval(msg.sender, spender, value);\n        return true;\n    }\n\n    function allowance(address owner, address spender)\n        public\n        view\n        override\n        returns (uint256)\n    {\n        return allowed[owner][spender];\n    }\n\n    function balanceOf(address owner) public view override returns (uint256) {\n        return balances[owner];\n    }\n\n    function totalSupply() public view override returns (uint256) {\n        return _totalSupply;\n    }\n}\n",
  "sourcePath": "/home/cheshire/learn/dapp/21/frontend/contracts/ERC20Token.sol",
  "compiler": {
    "name": "solc",
    "version": "0.8.3+commit.8d00100c.Emscripten.clang"
  },
  "schemaVersion": "3.4.1",
  "updatedAt": "2021-10-06T15:33:27.895Z",
  "networkType": "ethereum",
  "devdoc": {
    "kind": "dev",
    "methods": {},
    "version": 1
  },
  "userdoc": {
    "kind": "user",
    "methods": {},
    "version": 1
  }
}